:020000020000FC
:100000000C9404000C94200004E00EBF0FE50DBF1B
:10001000A6D09ED0A9D048D0D0D084D0E7D000912F
:10002000600010916200011749F400916100109185
:100030006300011719F404E6CCD096D00C940B00A1
:100040000F930FB70F93FF93EF931F93F0E0E4E646
:100050000081039505300CF0002722240083F0E096
:10006000E5E6E00FF21D029528BA02BB008108BB4D
:1000700000916A00039500936A001F91EF91FF9130
:100080000F910FBF0F91189500E00C94480001E00C
:10009000006407B900E8076006B906B1006406B954
:1000A0003699FECF05B108950F931F930E94440027
:1000B000033019F0003039F00BC000916000039557
:1000C0000093600005C0009160000A9500936000F5
:1000D0000E944700033019F0003039F00BC0009146
:1000E000610003950093610005C0009161000A95CD
:1000F0000093610003D01F910F910895009160005B
:1001000017E009D0009360000091610015E003D072
:1001100000936100089500601AF0011711F4025075
:1001200003950895FF27E0E604D0FF27E2E601D01B
:100130000895119107D01081E5E6E10F1081102B91
:100140001083089501E01A9512F0000FFCCF089576
:1001500022240FE707BB00EF01BB7894089500E469
:100160000BBF03E005BF08950F920F920ED00F91C1
:10017000009363000F910093620000E00093600021
:1001800002E00093610019D008950EB7F02F0DB76B
:10019000E02FE395E395E39500916A000770043042
:1001A0000CF00450019300916A00000F07700430B6
:1001B0000CF004500E5F0083089522242092650005
:1001C00020926600209267002092680020926900C9
:1001D00008958F939F9384E690E0979A0BD0979819
:1001E00009D00197D1F79F918F9108951F932F9375
:1001F0002FEF03C01F932F9326E01FE51A95F1F709
:0A0200002A95D9F72F911F91089558
:00000001FF
