:020000020000FC
:1000000004E00EBF0FE50DBF0E94090022270C94EB
:10001000250000E00ABB0FEF07BB08952F7028BB37
:1000200008950E9415000E941500C79A0AE01FE17A
:100030001A95F1F70A95D9F7C798089509B3017091
:10004000000F000F000F000F08950E9433000E9460
:1000500015000E9437000E943D000E940E000E9481
:1000600011000C9425000E941E00E9F308950E94DF
:100070001E00C9F30E9411000895222734E00C9459
:1000800041000E941E00202B26950E9411003A95E7
:04009000C1F7089517
:00000001FF
