:020000020000FC
:1000000004E00EBF0FE50DBF0E94090022270C94EB
:10001000210000E00ABB0FEF07BB08952F7028BB3B
:100020000895C79A0AE01FE11A95F1F70A95D9F7E2
:10003000C798089509B30170000F000F000F000F5B
:1000400008950E942D000E9411000E9431000E941C
:1000500035000E940E000C9421000E941A00E9F362
:1000600008950E941A00C9F30895222734E00C94E1
:1000700039000E9411000E9411000E941A00202BDA
:0800800026953A95B1F70895A9
:00000001FF
