:020000020000FC
:100000004141414141414141410060008800A80017
:10001000900040002800D000100020007800B000C0
:100020004800E000A000F0006800D8005000100078
:10003000C0003000180070009800B800C800BF9AD7
:100040000F93EF93FF930E9438000E942B00FF91C3
:10005000EF910F91F5CF0E943C000E9446000E9454
:1000600075000E9475000E9438000030A1F70895C5
:10007000E0E0E0E005910895EF93FF930154EAE09A
:10008000F0E0E00F0491FF91EF9108950E944A0083
:100090000E9469000E946900000F0E94520000380F
:1000A000C9F7089510F470F008952F9324E6C798C7
:1000B0000E947C00C79A0E947C002A952030B9F7E4
:1000C0002F9108950E9455000E9455000E945500EE
:1000D00008952F9324E6C7980E947C000E947C001C
:1000E0002A952030C1F72F9108950E9469000E943F
:1000F00069000E94690008953F931F933AE01FE151
:0E0100001A95F1F73A95D9F71F913F9108959E
:00000001FF
