:020000020000FC
:1000000048454A20484F5050000060008800A80032
:10001000900040002800D000080020007800B000C8
:100020004800E000A000F0006800D8005000100078
:10003000C0003000180070009800B800C800BF9AD7
:100040000F93EF93FF93E0E0F0E00E9439000E94ED
:100050002D00FF91EF910F91F3CF0E943B000E9482
:1000600050000E947D000E947D000E9439000030F7
:10007000A1F7059108951F92EF93FF93015400306B
:100080006CF00B3158F4EAE0F0E0000F1124E00FBF
:10009000F10D0491FF91EF911F9008950FEFFACFAA
:1000A0000E9455000E947D0008950E947D000F3F30
:1000B00031F0000F0E9466000038B9F708950E94E1
:1000C00089000E9489000E947D00089510F470F05C
:1000D00008952F9320E5C7980E949000C79A0E9428
:1000E00090002A952030B9F72F9108950E94690059
:1000F0000E9469000E94690008952F9320E5C79827
:100100000E9490000E9490002A952030C1F72F9104
:1001100008950E947D000E947D000E947D00089548
:100120003F931F933AE01FE11A95F1F73A95D9F7FB
:060130001F913F910895AC
:00000001FF
