:020000020000FC
:1000000048454A2048D65050000060008800A800AB
:10001000900040002800D000100020007800B000C0
:100020004800E000A000F0006800D8005000100078
:10003000C0003000180070009800B800C800BF9AD7
:100040000F93EF93FF93E0E0F0E00E9439000E94ED
:100050002D00FF91EF910F91F3CF0E943B000E9482
:1000600050000E947C000E947C000E9439000030F9
:10007000A1F7059108951F92EF93FF93015400306B
:100080006CF00B3158F4EAE0F0E0000F1124E00FBF
:10009000F10D0491FF91EF911F9008950FEFFACFAA
:1000A0000E9455000E947C0008950E947C000F3F32
:1000B00031F0000F0E9465000038B9F708950E94E2
:1000C00088000E9488000E947C0010F470F008955F
:1000D0002F9324E1C7980E948F00C79A0E948F0037
:1000E0002A952030B9F72F9108950E9468000E9448
:1000F00068000E94680008952F9324E1C7980E9429
:100100008F000E948F002A952030C1F72F9108950B
:100110000E947C000E947C000E947C0008953F9316
:100120001F933AE01FE11A95F1F73A95D9F71F911D
:040130003F9108955E
:00000001FF
