:020000020000FC
:100000004441544F5254454B4E494B0060008800C8
:10001000A800900040002800D000100020007800C8
:10002000B0004800E000A000F0006800D8005000D8
:100030001000C0003000180070009800B800C80020
:10004000BF9A0F93EF93FF93E0E0F0E00E943A0035
:100050000E942E00FF91EF910F91F3CF0E943C0080
:100060000E9449000E946D000E946D000E943A00AB
:100070000030A1F705910895EF93FF930154ECE050
:10008000F0E0000F1124E00FF10D0491FF91EF91CA
:1000900008950E944E000E946D0008950E946D0018
:1000A000000F0E9456000038C9F7089510F470F050
:1000B00008952F9324E6C7980E948000C79A0E9453
:1000C00080002A952030B9F72F9108950E94590099
:1000D0000E9459000E94590008952F9324E6C79862
:1000E0000E9480000E9480002A952030C1F72F9145
:1000F00008950E946D000E946D000E946D00089599
:100100003F931F933AE01FE11A95F1F73A95D9F71B
:060110001F913F910895CC
:00000001FF
