:020000020000FC
:100000000C9410000C942A000C945A007E000C00F2
:10001000B6009E00CC00DA00FA000E00FE00CE0012
:1000200004E00EBF0FE50DBF0E9420000E942500D6
:100030000FEF0ABB07BB00E001BB78940C941E00D5
:1000400000E40BBF03E005BF089504E005BF00E82E
:100050000BBF089518951F931091000113951A3046
:10006000E8F011271093000110910101139516304B
:10007000C0F01127109301011091020113951A305D
:1000800098F0112710930201109103011395163077
:1000900070F01127109301011F9118951093000122
:1000A000FBCF10930101F8CF10930201F5CF10930D
:1000B0000301F2CF0E945D0018950E9469000E9422
:1000C0006B0009E00E9474000E947C00239523705D
:1000D000089528BB0895022FE0E0F1E0000F1124FD
:1000E000E00FF10D00810895ECE0F0E0000F112425
:0C00F000E00FF10D049108950BBB089582
:00000001FF
