:020000020000FC
:100000000C9410000C942A000C9459007F000D00F1
:10001000B7009F00CD00DB00FB000F00FF00CF000A
:1000200004E00EBF0FE50DBF0E9420000E942500D6
:100030000FEF0ABB07BB00E001BB78940C941E00D5
:1000400000E40BBF03E005BF089504E005BF00E82E
:100050000BBF08951F931091000113951A30E8F01B
:100060001127109300011091010113951630C0F073
:100070001127109301011091020113951A3098F085
:10008000112710930201109103011395163070F09F
:100090001127109301011F91189510930001FBCFB8
:1000A00010930101F8CF10930201F5CF10930301D3
:1000B000F2CF0E945C0018950E9467000E946900C0
:1000C0000E9472000E947A0023952370089528BB35
:1000D0000895022FE0E0F1E0000F1124E00FF10D90
:1000E00000810895ECE0F0E0000F1124E00FF10D25
:0800F000049108950BBB089573
:00000001FF
