:020000020000FC
:100000000C9410000C9447000C9477007E000C00B8
:10001000B6009E00CC00DA00FA000E00FE00CE0012
:1000200004E00EBF0FE50DBF0E943D000E9442009C
:100030000FEF0ABB07BB00E001BB20E0789431E082
:100040003093000132E03093010133E0309302013C
:1000500034E0309303010E9477000E9477000E94F1
:1000600077000E9477000E9477000E9477000E942C
:1000700077000E9477000C943B0000E40BBF03E084
:1000800005BF089504E005BF00E80BBF089518956B
:100090001F931091000113951A30E8F01127109367
:1000A00000011091010113951630C0F01127109333
:1000B00001011091020113951A3098F01127109345
:1000C0000201109103011395163070F0112710935F
:1000D00001011F91189510930001FBCF10930101AE
:1000E000F8CF10930201F5CF10930301F2CF0E94D5
:1000F0007A0018950E9485000E9487000E948F0058
:100100000E94970023952370089528BB0895022F1D
:10011000E0E0F1E01124E00FF10D00810895ECE042
:10012000F0E0000F1124E00FF10D049108950BBBD6
:02013000089530
:00000001FF
