:020000020000FC
:100000000C9410000C942E000C9461007F000D00E5
:10001000B7009F00CD00DB00FB000F00FF00CF000A
:1000200004E00EBF0FE50DBF0E9420000E942700D4
:1000300000E00ABB07BB0FEF01BB78940C941E00D5
:1000400000E400933B0003E000933400089500E8CF
:1000500000933B0004E00093340008950FEF0E94EA
:10006000820018951F931091000113951A30E8F043
:100070001127109300011091010113951630C0F063
:100080001127109301011091020113951A3098F075
:10009000112710930201109103011395163070F08F
:1000A0001127109301011F91189510930001FBCFA8
:1000B00010930101F8CF10930201F5CF10930301C3
:1000C000F2CF0E94640018950E946F000E94710098
:1000D0000E947A000E94820023952370089528BB15
:1000E0000895022FE0E0F1E0000F1124E00FF10D80
:1000F00000810895ECE0F0E0000F1124E00FF10D15
:08010000049108950BBB089562
:00000001FF
