:020000020000FC
:100000000C9410000C9430000C945F007E000C00E7
:10001000B6009E00CC00DA00FA000E00FE00CE0012
:1000200004E00EBF0FE50DBF0E942B000FEF0ABBCF
:1000300007BB00E001BB20E0789400E000930001E2
:1000400000E00093010100E00093020100E0009352
:1000500003010C94290000EC0BBF07E005BF0895D5
:100060001F931091000113951A30E8F01127109397
:1000700000011091010113951630C0F01127109363
:1000800001011091020113951A3098F01127109375
:100090000201109103011395163070F0112710938F
:1000A00003011F91189510930001FBCF10930101DC
:1000B000F8CF10930201F5CF10930301F2CF0E9405
:1000C000620018950E946D000E946F000E947700E8
:1000D0000E947F0023952370089528BB0895022F66
:1000E000E0E0F1E01124E00FF10D00810895ECE073
:1000F000F0E0000F1124E00FF10D049108950BBB07
:02010000089560
:00000001FF
